:100000007829FF1F116800002169000013260000F5
:100010007B3700005F3800007738000000000000E8
:10002000000000000000000000000000EF380000A9
:10003000773B0000000000001F3C00002569000025
:1000400041690000496900005169000059690000D8
:100050006169000069690000716900007969000048
:1000600081690000896900009169000099690000B8
:10007000A1690000A9690000B1690000B969000028
:10008000C1690000ED6A0000ED6A0000ED6A000041
:10009000ED6A0000ED6A0000ED6A0000ED6A000004
:1000A000C9690000D1690000D9690000E169000058
:1000B000E9690000F1690000ED6A0000F9690000DB
:1000C000016A0000096A0000116A0000196A000054
:1000D000216A0000296A0000316A0000ED6A000010
:1000E000ED6A0000ED6A0000ED6A0000ED6A0000B4
:1000F000ED6A0000ED6A0000ED6A0000ED6A0000A4
:10010000ED5E0000E36100008B6200008F62000082
:10011000ED6A0000ED6A0000ED6A0000ED6A000083
:10012000ED6A0000ED6A0000ED6A00004D6200001B
:100130002762000037620000ED6A000009620000DB
:10014000ED6A0000396A000003620000416A0000A5
:10015000ED6A0000ED6A0000ED6A0000ED6A000043
:10016000ED6A0000ED6A0000496A0000516A000073
:10017000596A0000616A0000696A0000716A000043
:10018000796A0000816A0000896A0000916A0000B3
:10019000996A0000A16A0000A96A0000ED6A0000E7
:1001A000ED6A0000ED6A0000ED6A0000B16A00002F
:1001B000ED6A0000ED6A0000B96A0000C16A000043
:1001C000C96A0000D16A0000D96A0000E16A000033
:1001D000ED6A0000ED6A0000ED6A0000ED6A0000C3
:1001E000ED6A0000ED6A0000ED6A0000ED6A0000B3
:1001F000ED6A0000ED6A0000ED6A0000ED6A0000A3
:10020000ED6A0000ED6A0000ED6A0000ED6A000092
:1003F000ED6A0000ED6A0000ED6A0000FFFFFFFFFC
:10040000FFFFFFFFFFFFFFFFFFFFFFFFFEFFFFFFFD
:1004100070B5012001F05FFCDFF8640BDFF8644B7E
:100420000168DFF8645B216004F184064168616063
:1004300000238168A160C168E160006920612879BA
:100440006061DFF8480B0168A1616878E061DFF85E
:10045000400B01682162DFF83C1B08686062DFF82E
:10046000380B0168A162DFF8341B0868E062DFF82E
:10047000300B01682163DFF82C1B08686063E86FAC
:10048000A063DFF8240B0168E163DFF8201B086834
:100490002064286960646869A064A869E064E86908
:1004A0002065286A6065686AA065DFF8040B01684A
:1004B000DFF8000BE16501682166416861668168CB
:1004C000A166C168E16600692067DFF8EC0A01688F
:1004D0006167DFF8E81A0868A067DFF8E40A0168D6
:1004E000DFF8E00AE1672978C4F88010016831601C
:1004F000DFF8D41A0A687260F022A86AB060E86A6D
:10050000F060286B3061DFF8C40A01687161DFF8C0
:10051000C01A0878B061DFF8BC0A0178F161DFF831
:10052000B81A08783062DFF8B40A017871620120E5
:10053000214601F02DFC022001F0CDFBDFF8A00ADE
:100540000168316704F58270A96B01600023E96BD3
:100550004160F022296C8160696CC160A96C016105
:10056000E96C4161296D8161696DC161A96D0162AB
:10057000022004F1F001BDE8704001F009BC38B57B
:10058000DFF8605A2B46F0220021012001F04EFCDA
:10059000DFF8F449A079002861D1DFF8E40929687F
:1005A000016069684160A9688160E968C160296982
:1005B00001616869DFF8D4192071A8690860E969E8
:1005C0006170286ADFF8C8190860696ADFF8C40931
:1005D0000160A86ADFF8C0190860E96ADFF8BC09A1
:1005E0000160286BDFF8B8190860696BDFF8B4099F
:1005F0000160A86BDFF8B019E067E86B0860296C50
:10060000DFF8A8090160686CDFF8A4192061A86C04
:100610006061E86CA061286DE061686D2062A86D82
:100620006062E86D0860296EDFF888090160696E14
:100630004160A96E8160E96EC160296F0161686FD8
:10064000DFF874190860A96FDFF870090160E86FBE
:10065000DFF86C190860D5F8801021704AE0012895
:100660006CD16869DFF824192071A8690860E9690C
:100670006170286ADFF818190860696ADFF81409E0
:100680000160A86ADFF810190860E96ADFF80C0950
:100690000160286BDFF808190860696BDFF804094E
:1006A0000160A86BDFF80019E067E86B0860296C4F
:1006B000DFF8F8080160686CDFF8F4182061A86CB6
:1006C0006061E86CA061286DE061686D2062A86DD2
:1006D0006062E86D0860696FDFF8DC080160A86F90
:1006E000DFF8D8180860E96FDFF8D4080160D5F8A2
:1006F0008000207005F18400DFF8C82801681160CF
:100700004268DFF8C4180A608168DFF8C028A16277
:10071000C168E16201692163416911608269DFF8A2
:10072000B0180A70C169DFF8AC281170026ADFF8EE
:10073000A8180A70406ADFF8A418087005F1F003E1
:10074000F0220021022001F071FB05F18400DFF8A6
:100750009028016F116005F582700168A1634168FE
:10076000E16381682164C16861640169A1644169D0
:10077000E16481692165C1696165006AA06531BD77
:1007800078B5DFF80448A078012885B040F073837D
:1007900001F058FC6079401E00210728A17000F28A
:1007A0006A83DFE810F0080023018401A901050233
:1007B0001902AF02EA02DFF8C8673268CDA5294600
:1007C000684601F0A3FD6A460021002001F053FCB9
:1007D00072682946684601F099FD6A4601210020A9
:1007E00001F049FCB2682946684601F08FFD6A466F
:1007F0000221002001F03FFCF2682946684601F022
:1008000085FD6A460321002001F035FC3269294646
:10081000684601F07BFD6A460421002001F02BFCB4
:10082000DFF8906732682946684601F06FFD6A4636
:100830000021192001F01FFC72682946684601F06A
:1008400065FD6A460121192001F015FCB2682946B0
:10085000684601F05BFD6A460221192001F00BFC9D
:10086000F2682946684601F051FD6A4603211920C5
:1008700001F001FC32692946684601F047FD6A46ED
:100880000421192001F0F7FBDFF85C67306801F004
:100890005DFD02460B460FF28071684601F036FDA1
:1008A0006A460021412001F0E6FBDFF840070068BE
:1008B00001F04CFD02460B460FF26471684601F0F0
:1008C00025FD6A460121412001F0D5FBDFF8200714
:1008D000006801F03BFD02460B460FF24C71684682
:1008E00001F014FD6A460221412001F0C4FBDFF84B
:1008F0000407006801F02AFD02460B460FF2307132
:10090000684601F003FD6A460321412001F0B3FB74
:10091000DFF8E406DFF8E466006801F017FD024640
:100920000B460FF21471684601F0F0FC6A46042190
:10093000412001F0A0FB32682946684601F0E6FC40
:100940006A4600212D2001F096FB72682946684610
:1009500001F0DCFC6A4601212D2001F08CFBB2681D
:100960002946684601F0D2FC6A4602212D2001F09A
:1009700082FBF2682946684601F0C8FC6A460321FA
:100980002D2001F078FB32692946684601F0BEFC53
:100990006A4604212D2001F06EFBA2790FF2A061BE
:1009A000684601F0B3FC6A460521002001F063FBB4
:1009B000DFF84C06006801F0C9FC02460B460FF256
:1009C0009461684601F0A2FC6A460621002001F00D
:1009D00052FBDFF83006006801F0B8FC02460B4617
:1009E0000FF28061684601F091FC3FE2DFF8A0055C
:1009F0000FF284610268DFF81066684601F086FC39
:100A00006A460021002001F036FBDFF880050FF276
:100A100078610268684601F079FC6A46012100208D
:100A200001F029FBDFF8A4050FF26C61026868464B
:100A300001F06CFC6A460221002001F01CFBDFF88B
:100A40007C050FF268610268684601F05FFC6A4647
:100A50000321002001F00FFBDFF848050FF25C6175
:100A60000268684601F052FC6A460421002001F049
:100A700002FBE26F0FF25461684601F047FC6A46E0
:100A80000521002001F0F7FA00250721E8B201F066
:100A9000AFFAE06F31888842B4BFFF20002001F038
:100AA0005BFA6D1CB61CE8B28028EEDBE3E16278ED
:100AB0000FF22C61684601F029FC6A4600210020F3
:100AC00001F0D9FADFF8FC040FF2206102686846F1
:100AD00001F01CFC6A460121002001F0CCFADFF88D
:100AE000E8040FF218610268684601F00FFC6A46DC
:100AF0000221BDE125640000DFF8C4040FF20C619F
:100B00000268684601F002FC6A460021002001F0FC
:100B1000B2FADFF884040FF208610268684601F057
:100B2000F5FB6A460121002001F0A5FADFF8640414
:100B30000FF200610268684601F0E8FB6A46022194
:100B4000002001F098FADFF860040FF2F851026813
:100B5000684601F0DBFB6A460321002001F08BFAB6
:100B6000DFF848040FF2F0510268684601F0CEFB4E
:100B70006A460421002001F07EFADFF89004027832
:100B8000012A07D10FF2E051684601F0BFFB6A4627
:100B900005216DE1DFF878040278012A40F06B81CD
:100BA0000FF2D451684601F0B1FB6A4605215FE1BE
:100BB000DFF86004425E0FF2D051684601F0A6FBF8
:100BC0006A460621002001F056FADFF8780D0FF290
:100BD000C851B0F9002046E122690FF2CC516846B5
:100BE00001F094FB6A460021002001F044FAA06B5A
:100BF00001F0ACFB02460B460FF2B851684601F01B
:100C000085FB6A460021502001F035FA62690FF237
:100C1000B051684601F07AFB6A460121002001F0DC
:100C20002AFAE06B01F092FB02460B460FF29C5150
:100C3000684601F06BFB6A460121502001F01BFA67
:100C4000A2690FF29451684601F060FB6A460221E6
:100C5000002001F010FA206C01F078FB02460B46F0
:100C60000FF28051684601F051FB6A460221502084
:100C700001F001FAE2690FF27851684601F046FB93
:100C80006A460321002001F0F6F9606C01F05EFB7A
:100C900002460B460FF26451684601F037FB6A4684
:100CA0000321502001F0E7F9226A0FF25C516846F7
:100CB00001F02CFB6A460421002001F0DCF9A06C55
:100CC00001F044FB02460B460FF24851684601F022
:100CD0001DFB6A460421502001F0CDF922780FF265
:100CE0004051684601F012FB6A460521002001F0E0
:100CF000C2F9A26F0FF23851684601F007FB6A464D
:100D00000621B5E0B2480FF238510278684601F08A
:100D1000FDFA6A460021002001F0ADF9AD480FF25E
:100D200034510278684601F0F1FA6A460121002048
:100D300001F0A1F9A8480FF230510278684601F09D
:100D4000E5FA6A460221002001F095F9A3480FF266
:100D500028510278684601F0D9FA6A46032100203A
:100D600001F089F9DFF8E00B0FF2285102686846BC
:100D700001F0CCFA6A4606217AE0626A0FF2285145
:100D8000684601F0C3FA6A460021002001F073F9B9
:100D9000E06C01F0DBFA02460B460FF21851684690
:100DA00001F0B4FA6A460021502001F064F9A26A09
:100DB0000FF20C51684601F0A9FA6A4601210020A1
:100DC00001F059F9206D01F0C1FA02460B460FF20D
:100DD000FC41684601F09AFA6A460121502001F070
:100DE0004AF9E26A0FF2F041684601F08FFA6A466A
:100DF0000221002001F03FF9606D01F0A7FA0246E0
:100E00000B460FF2E041684601F080FA6A46022183
:100E1000502001F030F9226B0FF2D441684601F006
:100E200075FA6A460321002001F025F9A06D01F052
:100E30008DFA02460B460FF2C441684601F066FA8D
:100E40006A460321502001F016F9E26E0FF2B84114
:100E5000684601F05BFA6A460621002001F00BF9B2
:100E6000226F0FF2B441684601F050FA6A4607213A
:100E7000002001F000F96078032870D8DFE800F066
:100E8000021D3C5A5848594990ED000A5848BDEE99
:100E9000C00A84ED170A91ED000ADFF8601CBDEE70
:100EA000C00A84ED180A90ED000ABDEEC00A84ED78
:100EB000190AB1F90000A06651E00020E065DFEDFD
:100EC0002D0ADFF83C0CB0F90010DFF8380C216671
:100ED0004B4991ED000A60EE200AFDEEE00AC4EDF8
:100EE000190ADFED250A90ED000A60EE200AFDEEFA
:100EF000E00AC4ED1A0A32E03B483C4990ED000A92
:100F00003B48BDEEC00A84ED170A91ED000ADFF8F8
:100F1000F81BBDEEC00A84ED180A90ED000ABDEE84
:100F2000C00A84ED190A91ED000ABDEEC00A84EDF5
:100F30001A0A14E0E06EE065DFED100A206F20660B
:100F4000DFF8C80B90ED000ADFF8F80960EE200A20
:100F5000FDEEE00AC4ED190AB0F90010A16620798F
:100F600018B900F095FD06B070BD00F056FD06B052
:100F700070BD00000000FA430000FA4400007A440B
:100F80002001FF1F4C03FF1F8401FF1F8001FF1F73
:100F90007C01FF1F6401FF1F6C01FF1F3C03FF1F4B
:100FA0003403FF1FA802FF1F5409FF1FA402FF1FE5
:100FB0003803FF1F0803FF1F6801FF1FAC02FF1F5C
:100FC0007001FF1F7401FF1F7801FF1F7002FF1FD8
:100FD0003303FF1F9502FF1F4803FF1F3203FF1F4C
:100FE0005801FF1F2C05FF1F3801FF1F4001FF1F85
:100FF0003C01FF1F4401FF1F4801FF1F0801FF1FA5
:101000004C01FF1F8C08FF1F1007FF1F0501FF1F6A
:101010000401FF1F9802FF1F4C3A252E3266000084
:101020004D3A252E32660000523A252E32660000D7
:10103000554C3A252E32660055523A252E3266001E
:10104000726561645F666C6173685F747970653A3C
:1010500025640000656C6563745F76616C3A252ECB
:101060003366000075705F656C6563745F76616CF4
:101070003A252E33660000006C6F73655468726504
:10108000733A256400000000726566696E644C69FD
:101090006E653A2564000000676574696E746F5F61
:1010A00073706565643A25640000000067617261D1
:1010B00067655F636E743A25640000006779726F3C
:1010C0005F6761726167653A2564000073746172DD
:1010D000745F6C696E655F74687265733A2564004D
:1010E00073656E64666C61673A2564006469725F5B
:1010F00070776D5F6D61783A256400006469725F96
:1011000070776D5F6D696E3A25640000676574697C
:101110006E746F5F636972636C653A2564000000EA
:10112000676F746F5F636972636C655F6779726F15
:101130003A256400436972636C6554687265733A5A
:1011400025640000696E5F636972636C655F746833
:101150007265733A256400006772796F5F63697224
:10116000636C653A2564000052696768744369726C
:10117000636C653A256400004C656674436972636C
:101180006C653A256400000061636373656E736586
:10119000723A2564000000006779726F73656E73A0
:1011A0006F723A25640000007370656564313A25FA
:1011B000640000006373313A252E3266000000009F
:1011C0007370656564323A25640000006373323AD7
:1011D000252E3266000000007370656564333A2581
:1011E000640000006373333A252E3266000000006D
:1011F0007370656564343A25640000006373343AA3
:10120000252E3266000000007370656564353A254E
:10121000640000006373353A252E3266000000003A
:1012200053706565645F5365743A2564000000007F
:10123000647574795F6D6F746F723A256400000095
:10124000746573745F73746172746C696E653A254A
:1012500064000000746573745F726F616470617222
:10126000743A256400000000746573745F636972EA
:10127000636C653A25640000646972656374696F24
:101280006E5F696E746F5F6761726167653A25644E
:1012900000000000646972656374696F6E5F707747
:1012A0006D3A2564000000007370656564363A2568
:1012B000640000006373363A252E32660000000099
:1012C0007370656564373A25640000006373373ACC
:1012D000252E3266000000007370656564383A257B
:1012E000640000006373383A252E32660000000067
:1012F0007370656564393A25640000006373393A98
:10130000252E3266000000004C5F656E636F6465D9
:10131000723A256400000000525F656E636F646579
:10132000723A2564000000002DE9FC41DFF8F868FE
:10133000012206F114033446042019782578A942C5
:1013400003D001B172742178197059786578A94277
:1013500004D009B1511C7174617859709978A578DD
:10136000A94204D009B1911C7174A1789970D978FF
:10137000E578A94204D009B1D11C7174E178D97023
:10138000241D1B1D121D401ED7D1727CDFF89C78D6
:10139000102A0CBF012100219A2001F02FF8707C47
:1013A000401E0F2800F25F82DFE810F010001A00E4
:1013B0001C001E00200022002A002D003300AD007A
:1013C00017018901FC01340258025B027879012877
:1013D00004D1B17C481E8041C00FB074012010E0E0
:1013E00002200EE003200CE004200AE0052008E0C3
:1013F0007879062802D10821797134E2062000E0CC
:10140000072078712FE2786F411E8941C90F7967F3
:1014100029E2787901280AD1B879012808BF00208B
:1014200003D0002840F01F820120B8711BE202287F
:1014300009D1DFF8FC07B7F90820016802EB820345
:1014400001EB4301F1E1032804D17978388941188F
:10145000797008E2042808D1DFF8D807B7F9082026
:101460000168322312FB0311DFE1052800F0FB8144
:1014700006281FD1B7F90850F87828B1396905EB6B
:1014800085056D183D61EEE1B86B00F05FFF044625
:101490008846284600F0D6FFDFF89C27DFF89C3707
:1014A00000F0E6FF2246434601F0B4F801F06EF981
:1014B000B863D8E1072808BFDFF8840700F0D580BB
:1014C000082840F0D081B7F90850F87828B1796A37
:1014D00005EB85056D187D62C5E1F86C00F036FFFF
:1014E00004468846284600F0ADFFDFF84C27DFF8B9
:1014F0004C3700F0BDFF2246434601F08BF801F067
:1015000045F9F864AFE17879022808BFDFF83407BD
:1015100000F08581032809D1DFF82C07B7F90820EE
:10152000016802EB820301EB43017EE1042807D14D
:10153000DFF81807B7F90820016801EB420174E1F0
:10154000052800F0908106281FD1B7F90850F878D7
:1015500028B1796905EB85056D187D6183E1F86B2C
:1015600000F0F4FE04468846284600F06BFFDFF8E2
:10157000C826DFF8C83600F07BFF2246434601F05C
:1015800049F801F003F9F8636DE1072808BFDFF8B7
:10159000C0066AD0082840F06681B7F90850F8788C
:1015A00028B1B96A05EB85056D18BD625BE1386D40
:1015B00000F0CCFE04468846284600F043FFDFF8E2
:1015C0007826DFF8783600F053FF2246434601F0D4
:1015D00021F801F0DBF8386545E17879022809D176
:1015E000DFF87006B7F90820016802EB820301EB0F
:1015F00043011AE1032809D1DFF85C06B7F9082096
:10160000016802EB820301EB43010EE1042808BFED
:10161000DFF8480600F00381052800F02481062841
:101620001FD1B7F90850F87828B1B96905EB8505DD
:101630006D18BD6117E1386C00F088FE04468846DD
:10164000284600F0FFFEDFF8F025DFF8F03500F067
:101650000FFF2246434600F0DDFF01F097F83864A3
:1016600001E1072808D1DFF8F805017801290CBF4E
:10167000002201220270F6E0082840F0F480B7F959
:101680000850F87828B1F96A05EB85056D18FD62F8
:10169000E9E0786D00F05AFE04468846284600F0DE
:1016A000D1FEDFF89425DFF8943500F0E1FE224604
:1016B000434600F0AFFF01F069F87865D3E0787930
:1016C000022809D1DFF89C05B7F90820016802EB70
:1016D000820301EB8301A8E0032800F0C480042802
:1016E00009D1DFF88405B7F90820016802EB82030D
:1016F00001EB430199E0052800F0B58006281FD1D1
:10170000B7F90850F87828B1F96905EB85056D1827
:10171000FD61A8E0786C00F019FE04468846284672
:1017200000F090FEDFF81025DFF8103500F0A0FE85
:101730002246434600F06EFF01F028F8786492E0FC
:1017400007280CD1DFF824050178012908BF022100
:1017500003D0022940F087800121017083E008282E
:1017600040F08180B7F90850F87828B1396B05EB63
:1017700085056D183D6376E0B86D00F0E7FD044621
:101780008846284600F05EFEDFF8AC24DFF8AC3473
:1017900000F06EFE2246434600F03CFF00F0F6FFEC
:1017A000B86560E07879022808BFDFF8C40436D055
:1017B000032858D0042809D1DFF8B804B7F9082065
:1017C000016802EB820301EB43012EE005284AD0B9
:1017D000062848D1B7F90850F87828B1396A05EBDE
:1017E00085056D183D623EE0B86C00F0AFFD044623
:1017F0008846284600F026FEDFF83C24DFF83C341B
:1018000000F036FE2246434600F004FF00F0BEFF23
:10181000B86428E07879012809D1DFF85C04B7F9C9
:101820000820016802EB8202511801601BE00228C7
:1018300008D1B7F90810F86F01EB810200EB420004
:10184000F86710E003281CBF042805280BD00628E1
:1018500009D1397838894118397004E0FEF78FFED4
:1018600001E0FEF7D5FD00207074F07C002856D012
:10187000402000F0D6FD40B1412000F0D2FD20B163
:10188000432000F0CEFD002849D101219A2000F02C
:10189000B5FD642000F0AEFF0020F07400219A2016
:1018A00000F0ACFD402000F0BCFD38B9F87801280C
:1018B00008BF002001D008B90120F870412000F0D5
:1018C000B0FD58B9B7F90800012808BF4FF0FF3044
:1018D00003D010F1010F01D101203881432000F025
:1018E000A0FDE0B9DFF89413DFF89423087000211D
:1018F00011707062DFF88C13DFF88C230870002100
:101900001170B0620120DFF88413DFF884230870BF
:1019100000211170DFF83823107800B931744020AD
:1019200000F07FFD01280AD1412000F07AFD012856
:1019300005D1432000F075FD012808BFF074BDE813
:10194000F38100009602FF1F5C01FF1F1CB5DFF84A
:101950000C03DFF8401390ED000AD1ED000AB34C00
:10196000B8EEC00AB4EE600AF1EE10FA41BFDFF83B
:101970002823D2ED000AB4EE600AF1EE10FA4CBF53
:1019800000210121112000F039FDDFF8F402017877
:1019900001290CBF00210121052000F02FFDB748CF
:1019A000017801290CBF00210121072000F026FD4C
:1019B000207900280CBF01210021082000F01EFD25
:1019C000B4F90800012808BF012103D010F1010F6C
:1019D00003D10021092000F011FD606F01280CBF28
:1019E000012100210A2000F009FDA849087808B16A
:1019F000012105E0B4F9080010F1010F03D1002125
:101A00000B2000F0FBFCE078BDE81C4001280CBF77
:101A100000210121522000F0F1BC70B59F4D002142
:101A2000284600F07AFFFF21284600F076FF0121CA
:101A3000284600F072FF0021284600F06EFF984E05
:101A400080243188090A284600F067FF36F8021B17
:101A5000C9B2284600F061FF641EF2D170BD38B4EF
:101A600003460A004FF6FF7010D04AF201041A78BC
:101A7000504008224510C00746BF84EA050080B2E6
:101A8000A8B2521EF6D15B1C491EF0D132BC704781
:101A900078B583B0684600210022002380E80E005C
:101AA0006248C26D036E416E806E8DF804108DF831
:101AB00006008DF800208DF80230090A000A120A8B
:101AC0001B0A8DF805108DF807008DF801208DF8A0
:101AD000033008216846FFF7C2FF8DF808006D4605
:101AE000000A8DF809000A246C4E15F8011B3046D7
:101AF00000F013FF641EF8D104B070BD9A02FF1FFE
:101B00009C02FF1F9008FF1F5009FF1F5001FF1F7D
:101B100038B5612000F085FC624C217C14F821204E
:101B200040EA420004F82100632000F07AFC217CA6
:101B3000621C631C12F8212040EA420003F82100D5
:101B4000652000F06EFC217CA21CA31C12F8212051
:101B500040EA420003F82100672000F062FC217C8B
:101B600004EB8102D578137840EA4500D07013F079
:101B70000F0F2D4800EB810008BF002304D003F0B5
:101B80000F030F2B01D101230370537813F00F0FB4
:101B900008BF002304D003F00F030F2B01D1012352
:101BA0004370937813F00F0F08BF002304D003F0A5
:101BB0000F030F2B01D101238370D27812F00F0F86
:101BC00008BF002204D002F00F020F2A01D1012227
:101BD000C270491C01F003010329217422D8DFE8F7
:101BE00001F0020910170121662000F007FC002116
:101BF000602013E00121602000F000FC0021622041
:101C00000CE00121622000F0F9FB0021642005E0D6
:101C10000121642000F0F2FB00216620BDE8344081
:101C200000F0ECBB31BD00003C02FF1F8401FF1F30
:101C30007C01FF1F7001FF1F7B14AE47E17A843FD8
:101C40003303FF1F8001FF1F7401FF1F6C01FF1F83
:101C50009502FF1F7002FF1F7801FF1F6401FF1F25
:101C60004803FF1FAC02FF1F5409FF1F3203FF1F71
:101C7000A802FF1FA402FF1F6801FF1F0301FF1F2F
:101C80000601FF1F0401FF1F0501FF1F3103FF1F96
:101C90000C07FF1F4401FF1F4801FF1F00A00E405B
:101CA0001007FF1F2003FF1F81B231B1401E5C49A6
:101CB00000BF491E0029FBD1F6E770475A4801686A
:101CC00041F400210160574802781106FCD5F0214B
:101CD00001700A20E8E782B0C0F580710903009125
:101CE00009225049CA719DF802208A719DF801208D
:101CF0004A719DF800200A71F0220A700A781306D2
:101D0000FCD5097811F0710F18BF002007D128B950
:101D10004FF0FF324FF4816102B002E0012002B0C7
:101D2000704706B4C0F5807001EB003000909DF85C
:101D300002103C4881719DF8011041719DF800101E
:101D400001719DF80710C1729DF8061081729DF80F
:101D5000051041729DF8041001720721C171002124
:101D60000091C1739DF8021081739DF801104173B9
:101D70009DF800100173F021017001780A06FCD56E
:101D8000007800F07100401E8041C00F02B0704723
:101D90003CB4C0F5807003EB003322480724C471C3
:101DA0000024AAB301939DF8063083719DF8053095
:101DB00043719DF8043003710B6800939DF8033064
:101DC000C3729DF8023083729DF8013043729DF812
:101DD000003003724B6800939DF80330C3739DF885
:101DE000023083739DF8013043739DF80030037314
:101DF000F023037003781D06FCD5057815F0710FEC
:101E000009D1019B08310834083394420193CAD3A5
:101E100036BC0120704736BC00207047000000002F
:101E2000A08601000000024004F00140C0F580706F
:101E300001EB0030110005D010F8011B03F8011B65
:101E4000521EF9D10120704710B5002201214D200A
:101E500000F0A0FA002201214E2000F09BFA00229F
:101E600001214F2000F096FA00220121502000F0BD
:101E700091FADFF86C42206840F480302060322014
:101E8000216821F48041216000F0F4F8206840F4DA
:101E900080402060AE2000F085F8002000F082F83D
:101EA000102000F07FF8402000F07CF8812000F046
:101EB00079F8CF2000F076F8A12000F073F8C82060
:101EC00000F070F8A62000F06DF8A82000F06AF885
:101ED0003F2000F067F8D32000F064F8002000F005
:101EE00061F8D52000F05EF8802000F05BF8D92082
:101EF00000F058F8F12000F055F8DA2000F052F820
:101F0000122000F04FF8DB2000F04CF8402000F0E9
:101F100049F8202000F046F8022000F043F88D2018
:101F200000F040F8142000F03DF8A42000F03AF84A
:101F3000A62000F037F8AF2000F034F8002000F0C1
:101F400068F8B02000F02EF8102000F02BF8BDE863
:101F50001040002026E0000010B4DFF88421116852
:101F600041F4005111600821136823F48033136099
:101F7000491E030604D5136843F40043136003E0CD
:101F8000146824F400441460136853F4803313601D
:101F900000BF1468400024F4803400291460E7D1A5
:101FA00010BC704710B4DFF83821116821F40051DB
:101FB00011600821136823F480331360491E03065F
:101FC00004D5136843F40043136003E0146824F459
:101FD00000441460136853F48033136000BF146826
:101FE000400024F4803400291460E7D110BC70470D
:101FF00010B50446A1F15000C0B2FFF7D3FF20098D
:1020000040F01000FFF7CEFF04F00F00BDE81040D5
:10201000C8E770B505460026A6F15000C0B2FFF72C
:10202000C1FF0120FFF7BEFF1020FFF7BBFF842494
:102030002846FFF791FF641EFAD1761CF0B20828FB
:10204000EADB70BD38B50025A5F15000C0B2FFF73E
:10205000A9FF0120FFF7A6FF1020FFF7A3FF8424AC
:102060000020FFF779FF641EFAD16D1CE8B2082842
:10207000EADB31BD70472DE9FC4104460D46904630
:10208000002725E0A0F12006E0B27F28A4BF0024AD
:102090006D1CE9B2E0B2FFF7ABFFF6B20FF24400FD
:1020A00006EB460100EB4106A41D3078FFF754FF14
:1020B0007078FFF751FFB078FFF74EFFF078FFF729
:1020C0004BFF3079FFF748FF7079FFF745FF7F1C22
:1020D000F8B218F800000028D4D1BDE8F381000060
:1020E00080F00F400000000000000000002F000002
:1020F00000000700070000147F147F1400242A7FCB
:102100002A12006264081323003649552250000049
:102110000503000000001C224100000041221C00B9
:102120000014083E08140008083E0808000000A03B
:102130006000000808080808000060600000002037
:1021400010080402003E5149453E0000427F400015
:10215000004261514946002141454B31001814129B
:102160007F10002745454539003C4A494930000168
:102170007109050300364949493600064949291EB7
:102180000000363600000000563600000008142219
:102190004100001414141414000041221408000219
:1021A0000151090600324959513E007C1211127C3E
:1021B000007F49494936003E41414122007F41416B
:1021C000221C007F49494941007F09090901003E5D
:1021D0004149497A007F0808087F0000417F41009B
:1021E000002040413F01007F08142241007F404011
:1021F0004040007F020C027F007F0408107F003EF9
:102200004141413E007F09090906003E4151215EDE
:10221000007F091929460046494949310001017FDB
:102220000101003F4040403F001F2040201F003F71
:102230004038403F00631408146300070870080723
:1022400000615149454300007F41410000552A5536
:102250002A55000041417F000004020102040040B1
:1022600040404040000001020400002054545478D3
:10227000007F4844443800384444442000384444F3
:10228000487F00385454541800087E090102001891
:10229000A4A4A47C007F080404780000447D4000CE
:1022A000004080847D00007F102844000000417FB2
:1022B0004000007C04180478007C0804047800388E
:1022C0004444443800FC242424180018242418FC16
:1022D000007C0804040800485454542000043F447F
:1022E0004020003C4040207C001C2040201C003C42
:1022F0004030403C004428102844001CA0A0A07C92
:10230000004464544C441414141414140CB430B524
:1023100083B0044606A802900A4600250194009561
:1023200002AB01A9084878441E3000F015FB019962
:102330000D7000284EBF04460198041B204603B0D0
:1023400030BC5DF80CFB00BF1F010000C0F3C7519B
:1023500081B1FF2906D0C110400721F0E04101F111
:102360006051704741020CBF40F4E0016FF0004142
:102370000020704700F0004100020AD0B0FA80FC53
:1023800000FA0CF001F16051A1EB0C5101EBD021EE
:1023900040057047F8B4294B1D684FF40076440996
:1023A000A64035431D6000F01F00254D05EB84035A
:1023B0005E6956F8203023F4E06346F8203056F882
:1023C000203043F4807346F8203056F820700F43D5
:1023D00046F8207055F8243001240029596904FA80
:1023E00000F014BF014381435961002A196814BFEA
:1023F000084321EA00001860F1BC7047104B81B01F
:10240000420953F8222000F01F000123002911681F
:1024100003FA00F014BF084321EA0000106001B085
:102420007047014606484A0950F82200006901F049
:102430001F01C84000F001007047000038800440D0
:10244000BC02FF1FC11768B14840401AB0FA80F2C1
:102450009040D21CC907C2F5846241EA025202EBE5
:10246000D021400570470268531C0360117070470B
:10247000B0B581EA030C0CF0004C40F2FF7515EA90
:1024800011541DBF15EA1357AC42AF4239E0E419AD
:1024900023EA455343F48013C90241F0004141EA65
:1024A000505EC7021100A7FB020200284FF0000097
:1024B000EEFB01204FF00001E3FB072118BF42F0C3
:1024C0000102401800214941E3FB0E01A4F580649C
:1024D0000F0302D252004041494154F101046CDD26
:1024E000470872F1004250F1000051EB0451A1F590
:1024F00080115CBF41EA0C01B0BD4CEA05510020DF
:10250000B0BD05EA1357AC4214BFAF4241E050EAF8
:10251000410E1CBF52EA430E02E061460020B0BDEE
:1025200024423C441BD15FEA070EF6D0090302BFE8
:1025300001460020AEF1140EB1FA81F7AEEB0704AC
:1025400001FA07FE0C37C7F1200100FA07F7C8406F
:102550004EEA000E23EA455343F48013A2E733F01A
:102560000043B3FA83F704BFB2FA82FE77440B3F0D
:10257000E41BB7F1200E2FBF02FA0EF3BB40C7F1E8
:10258000200E22FA0EFE38BF43EA0E03BA40641C46
:1025900082E750EA410E14BF52EA430E6FF0000189
:1025A0004FF4001717EB430F8ABF194617EB410F83
:1025B000B5E74CEA05510020B0BDD4F10104B4F1F7
:1025C00020070FDAC4F12007520828BF42F00102A9
:1025D00010FA07F501FA07F7E1BF2A43E040384354
:1025E000E1400FE0352C98DCC7F1200452EA4002AC
:1025F00020FA07F218BF42F0010231FA07F0A140B9
:102600000A43002172F1004250F1000051EB0C012D
:10261000B0BDFEE770B44FF0004591EA030F41F101
:10262000B5806B40841A71EB030604D26E40001B28
:10263000B141121973414FF4001C1CEB410F34BF20
:102640007CEB430682E00C0DA4EB1356362E7BDCAC
:10265000012E45EAC32341DC43EA525312BFD202A2
:1026600092025B08240545EAC12141EA5051D2EBB0
:10267000C020994125D407D1B0FA80F610FA06F1AE
:1026800062D00020203608E0B1FA81F6B140C6F1F0
:10269000200220FA02F21143B0404FEAF474B4EB86
:1026A000465434F001064FEA74040AD8D6F50016F1
:1026B000760D04F00044F04061FA06F25040F1401B
:1026C0004840C00A40EA415021F0004128BF5FEA7B
:1026D000500550F1000044EBD12135E0DB0A45EA1A
:1026E000C121C90AB6F120050EDD42EA0242120CF0
:1026F000C5F1200603FA06F6EB4042EA06056D42F4
:10270000984161F100010DE062FA06F5F240554092
:1027100063FA06FC82EA0C02F3405A406D42904193
:1027200061EB030111F4801F05D1641E620502D024
:102730006D004041494121F48011430875F1004387
:1027400050F1000041EB045170BC70471CEB410F8D
:1027500015D223F0004352EA43060BD04FEA4C0C4B
:10276000BCEB410F04D80C0D661E342EB7DDEBE731
:10277000801A994150EA410608BF0021E4E708BFEA
:102780001CEB430F28BF6FF00001DDE701F00042B2
:102790008B1AA3F16051B1F5801F0ADBB1F17F6F95
:1027A0001FD242EAC102C10071F1004142EB5070F8
:1027B00070470B15C3F10903212B10D2890241EA9E
:1027C000905180020128494141F0004121FA03F073
:1027D000C3F12003994071F100415041704710004E
:1027E00070476FF0000013EB103F5CBF000E42EA31
:1027F000C0507047FFE7010013D00A490A6842F051
:1028000001020A60002308490B60886005204860C7
:102810000120086008680206FCD50A6852085200C8
:102820000A607047388004400000044038B43D4AD4
:10283000904206D13C4BDC6844F48064DC603B4C45
:102840002EE03B4B98420AD1374BDC6844F40064DD
:10285000DC604FF44073374C2360636024E0364BF8
:10286000984206D1304BDC6844F48054DC60334C31
:1028700016E0334B98420AD12B4BDC6844F40054E9
:10288000DC604FF440732B4C6363A3630CE02D4B6F
:10289000984209D1244B1C6844F480641C602A4C83
:1028A0004FF44073636023609042C37803F0F303F6
:1028B000C3701CBF1E4A90428378244A837007BFAE
:1028C000234B1B78234C237853430A01B3FBF2F2CA
:1028D00094B2B4F5005FA8BF41F6FF720478150406
:1028E0002D0E04F0E00405F01F052C430470427027
:1028F000B3FBF1F1847AA1EB021104F0E00401F0E2
:102900001F010C438472017C41F088010174C1787D
:1029100041F02C01C17031BC704702791306FCD51F
:10292000C171704700A006402880044038900440E0
:1029300000B006400CB0044000C0064008C004408F
:1029400000D0064000A00E4060D0044040420F007E
:102950007209FF1F7309FF1F2DE9F0439FB000BFED
:1029600066A6269CDFF8E48A02918DF83B400021A0
:102970000B914FF0FF37044691461D460AE019F8C7
:10298000011B0298A0470028029000F0A4800B9839
:10299000401C0B9099F8000050B12528EFD1002081
:1029A0000021059006910790089109900A9103E093
:1029B0000B98A7E041F0010119F8010F2028F9D088
:1029C00023280CD02B2804D02D2805D0302809D05E
:1029D00083E041F00201EFE741F00401ECE741F050
:1029E0000801E9E741F01001E6E700200D900AE058
:1029F0000D98404505DA00EB800302EB4302303AC4
:102A00000D9209F1010999F80020A2F130000A287D
:102A1000EED399F800002E2818BF0C9726D119F88C
:102A2000010F2A2808D12868286009F1010950F807
:102A3000042B28600C9219E02D280CBF19F8010B0B
:102A4000002000220C920BE040B90C9A424505DAB6
:102A500002EB820203EB4203303B0C9309F10109C4
:102A600099F80030A3F130020A2AEDD3ADF83810FE
:102A7000304699F8001000F0F3FE08B119F8010B88
:102A80008DF83A009DF83A00682804BF99F80010C4
:102A9000682903D162208DF83A0008E06C2804BF51
:102AA00099F800006C2804D171218DF83A1009F1D1
:102AB000010910A804902A4619F8013B69462046EE
:102AC00000F060F838B910AA6946204600F08CF989
:102AD00000287FF55FAF384614E02A2885D12A68A0
:102AE0002A6052F8040B2A6000280D9003D540425A
:102AF0000D9041F0040109F101098AE7686A6C74DC
:102B00007A4C00001FB0BDE8F083622820D068280E
:102B100011D06A2803D06C2827D0712825D10868E5
:102B2000C01D20F007000860D0E9002308300860CD
:102B3000194610467047002A0A680A60106803D0D8
:102B4000121D0A6000B217E0121D0A6080B217E081
:102B5000002A0A680A60106803D0121D0A6040B299
:102B60000AE0121D0A60C0B20AE0002A0A680A6080
:102B7000106803D0121D0A60C1177047121D0A6049
:102B80000021704770B51C460D46B4F125002E6932
:102B9000114600F017811C386AD0001F022867D93F
:102BA000133843D0093863D0801E16D0401E1ED083
:102BB000401E02285CD9001F19D0401F00F08380FE
:102BC000401E33D0401E00F0CD80C01E00F0D880E3
:102BD000801E2BD0C01E29D0FAE06869421C6A61B1
:102BE0000A680A6052F8043B0A603354FAE095F828
:102BF0003A000122FFF789FFC5E90001002399424D
:102C000004DA6869411C69612D210DE0288F810774
:102C100004D56869411C69612B2105E0C00722D5F4
:102C20006869411C6961202131541CE095F83A0023
:102C30000022FFF76AFFC5E9000195F83800010797
:102C400011D5D5E900230020834208BF82420AD073
:102C500044F02000782806D1686930213154401CA6
:102C6000411C69613454214668693044E86083E05E
:102C70000868C01D20F007000860D0E90023083074
:102C80000860C5E90023D5E90001C80F04D06869D0
:102C9000411C69612D210DE0288F810704D56869E9
:102CA000411C69612B2105E0C00704D56869411CFE
:102CB00069612021315468693044E8602146284622
:102CC00000F0C4F98EE005F13A02507820B14FF0DF
:102CD000FF340FF648205EE01078622808D068289C
:102CE00024D06A2812D06C282ED071280ED02BE068
:102CF0000A680A6052F8040B0A6020B94FF0FF34EA
:102D00000FF6302047E0E96A01706BE00A680A605C
:102D100052F8040B0A6020B94FF0FF340FF614206C
:102D200039E0EA6AD317C0E900235BE00A680A6069
:102D300052F8040B0A6020B94FF0FF340FF6F4107C
:102D400029E0E96A01804DE00A680A6052F8040B44
:102D50000A6020B94FF0FF340FF6D8101BE0E96A83
:102D600001603FE00A680A6052F8040B0A60002123
:102D7000C5E90001EE607821284600F0BBF831E09B
:102D80000868086050F8044B0860EC603CB94FF0EC
:102D9000FF340FF6B81000F06FFD201A70BD2E6BD7
:102DA000002E04D5204600F087FD044608E0324698
:102DB0000021204600F09CFD002814BF041B34466F
:102DC000AC610FE06869411C69612521315409E05B
:102DD0006969481C686125227254210002D0411C97
:102DE00069613454002070BD2DE9FC410F46064650
:102DF000796B7869BC6A091A386A091AB869091ABC
:102E0000786A091AF869091A97F838000C1B410703
:102E100090460FD42021002C8DF800100ADD2546A5
:102E200001236A463946304600F060FC00285DD137
:102E30006D1EF5D17B6942463946304600F056FC9E
:102E4000002853D130208DF800003D6A002D09DDA7
:102E500001236A463946304600F048FC002845D137
:102E60006D1EF5D1BB69FA683946304600F03EFC6C
:102E700000283BD130208DF800007D6A002D08DD50
:102E800001236A463946304600F030FC70BB6D1EA7
:102E9000F6D1F868B969FB6942183946304600F046
:102EA00025FC18BB30208DF80000BD6A002D08DD20
:102EB00001236A463946304600F018FCB0B96D1E51
:102EC000F6D197F8380041070DD52021002C8DF858
:102ED000001008DD01236A463946304600F006FC42
:102EE00020B9641EF6D10020BDE8F6814FF0FF3016
:102EF000BDE8F6812DE9FC4707468A463E69BAF1EE
:102F00006F0F08BF082405D04AF02001782914BFAC
:102F10000A2410243C25D7E90023BAF1640F18BF16
:102F2000BAF1690F9046994606D100218B4203DA27
:102F3000D8F1000869EB49090020814508BF8045A8
:102F40001FD1386BE8B9082C4CD197F8380001072D
:102F500048D530203B2586F83B0043E000280ED5BD
:102F600097F8380000F01400102808D17A6B7869BF
:102F7000121A386A121A511A0029C8BF3962BDE8FC
:102F8000F3878DF800A0404649462246E31700F03B
:102F9000DBFC3032D0B26D1E3A28019504DB9DF87F
:102FA0000000A0F151018A18725540464946224658
:102FB000E31700F0C9FC804689460020814508BF20
:102FC000804503D0F86871198842DCD3082C09D1F8
:102FD00097F83800010705D5715D302902D06D1EC4
:102FE00030207055C5F13C01B9617019F860386B3B
:102FF0008142B3DA411A39624FF6EF70398F0140DE
:103000003987BDE8F3872DE9D04306460F461446BD
:103010004FF00008DFF8389412E0E00707D5424689
:103020004B4630463946FFF723FA06460F464046E0
:10303000494642464B46FFF71BFA641080468946D4
:10304000002CEAD130463946BDE8D0832DE9F34F54
:10305000054641F020048DB0D5E90089612C02AE0F
:1030600009D0286B002848BF062003D408BF672C6E
:1030700001D101202863D5E9002358004015401CE8
:103080000ED119030CD00320A8619DF838006138D7
:103090001A2802D20FF2D06111E00FF2D0610EE0D7
:1030A00058004015401C0FD119030DD10320A86111
:1030B0009DF8380061381A2814D30FF2B861E86817
:1030C000032200F059FDD3E1194621F00043B3F586
:1030D000801F10460DD20027BB4208BFBA4201979D
:1030E00003D111E00FF28861E9E701AA00F098FD31
:1030F0000AE0DFF8607307EB1352DFF85C330192EC
:103100001940DFF858331943C5E90001612C0ED18D
:10311000E86830210170811CE9609DF83810612950
:103120000CBF7821582141706869801C6861D5E91D
:1031300000AB2BF0004300202AF00002834204BFC2
:103140008242002300F05A81612C40F0A980286B54
:1031500000284CBF2120401C00904046009F7F1C4F
:1031600049460022002300F093FDD94601988DF8CE
:10317000082038BF89F00049001F0190002FD04679
:103180000DF1090040F3498140F2FF71DFF8D0B240
:103190000C910646404649460022002300F090FD6F
:1031A00080F03A814800400D00F11C0210D0002A46
:1031B0000EDD0C98824205DB09F0004040EA0B016D
:1031C000002013E0A448084040EA025140460DE0C8
:1031D00029F00043002028F00002834208BF824209
:1031E0000FBF40461C22404600F082FD80468946C3
:1031F00000F01CFEFF1F002F044609DDFFF722F937
:1032000002460B464046494600F0B8FA80468946D9
:10321000F01D072104E004F00F0200F8012D241135
:10322000002C01DD491EF6D5491E5CBF002200F8C6
:10323000012DF9D5ECE00020194602AA0A4400E06D
:103240005B1E12F80149491E8442F9D00F2804D1AF
:103250000DF10900425C521C4254002904D501982A
:10326000001D02AE5B1C0190591E12D49DF838005F
:103270007218147804F130085FFA88F4392CC4BF4E
:10328000A0F13A04A044491E02F80189F1D58DF855
:103290003800286B002840F1B080591E2963ACE04B
:1032A000404649460022002300F0F2FC019938BF55
:1032B00089F0004947F2975041436A4A91FBF2F284
:1032C0000192D2F1070204DD40464946FFF79BFE1A
:1032D0000AE0524200206449FFF795FE02460B4681
:1032E0004046494600F0C0FD8046662C286BDFF85A
:1032F0007CB106BF019F0A3706273F18142FC8BFAD
:10330000142730208DF8080089460DF1090000E0EF
:103310003046002F34DD06464046494600F0C8FEE0
:1033200001460A4606F1080304200A26B2FBF6F617
:1033300006EB860EA2EB4E02303203F8012C0A2275
:10334000B6FBF2F202EB820EA6EB4E063036401EC2
:1033500003F8026DE9D1083F002F03F10806D7DD1D
:10336000084600F0B9FE02460B464046494600F0CA
:1033700005FA00225B46FFF77BF880468946CBE7DB
:103380000DF10901401A0DF1090604E00199491EE9
:10339000401E0191761C31783029F7D0662C02D17D
:1033A0000199491C03E0652C0CBF012100212B6B06
:1033B000CB189842B8BF431E002B1ED4834204DAB8
:1033C000F05C3528A8BF392000DA30201946721E7B
:1033D00002EB010800E05B1E18F80199491E8145C7
:1033E000F9D0392802D1705C401C7054002904D5F2
:1033F0000198401C16465B1C0190019800B2009099
:103400001BB29DF838103246284600F035F82FE000
:10341000C61D002F3FF7BEAE30460DF10901401A20
:10342000009903468842C8BF0B46002B0DF10906E0
:103430003FF52FAF8342BFF6FEAE0DF10900C05C31
:1034400007287FF7F8AE0F20F6E60000CBCCCC0CB7
:103450000000244002FCFFFFFFFF0F800000E03F60
:103460000000F07FA08601000000F03F84D7974164
:103470000FB0BDE8F08F00002DE9F84783B0064695
:103480008A461746984600F035FEB8F1000F406AAC
:10349000356B90F8009002DC4FF00108B6A7BDF93B
:1034A00030404AF02000662808BF641C15D0672809
:1034B00040F0848014F1040FC0F28680AC4280F2A8
:1034C000838096F83800641C010702D4A845B8BF71
:1034D000454620B22D1A48BF00250FFA84FAF0683D
:1034E000B169BAF1000F25DC4A1C30234354002D8A
:1034F00003DC96F83800010703D5F06800F8029065
:10350000521C15EB0A0FB8BF6C4220B2441941425D
:103510004445B8BFA046B26171620FFA88F5F56103
:10352000F068B3692A463946184400F025FB641B4D
:10353000B462C4E022B29045084417DA42463946E4
:1035400000F01AFBB0694044B061AAEB0801002DFD
:10355000716203DC96F838100A0705D5F16801F8A6
:103560000090F069401CF061B562A8E0394600F0B7
:1035700003FBB069002D5044A8EB040803DC96F867
:1035800038100A0703D5F16801F80090401CB061BB
:103590000FFA88F08542F068B369B8BFA8460FFA01
:1035A00088F207EB0A01184400F0E6FAB0690FFA56
:1035B00088F10844B061681A706280E0BAF1610F66
:1035C00014D14FF0700A16E0A84504DA96F83810C6
:1035D0000A0758BF45466D1E48BF0025BAF1670F60
:1035E00014BF4FF0450A4FF0650A04E0BAF1410FED
:1035F00008BF4FF0500AB169F368481CB061002D54
:1036000017F8012B5A5403DC96F838100A071BD51B
:10361000F168431CB36101F80090002D14DDA8F19E
:1036200001080FFA88F08542F068B8BFA8460FFA83
:1036300088F23946184400F09FFAB0690FFA88F111
:1036400008446D1AB0617562F068B1690844002CD5
:1036500080F800A003D42B214170811C03E02D21B0
:1036600041706442811C00206A460AE023460A2415
:1036700093FBF4F404EB8405A3EB450302F8013B50
:10368000401C24B2002CF1DC012806DC4AF02002A8
:10369000652A04BF302201F8012B48B9302001F817
:1036A000010B07E0401E1DF80020303201F8012B0D
:1036B0000028F7DCF068B2691044091AF16196F845
:1036C000380000F0140010280DD17169B06941185C
:1036D000706A4118F0694118B06A4118706B8142F4
:1036E000BCBF411A316204B0BDE8F087F8B50546A9
:1036F0000E4617461C46002074B117F8011BB0682F
:10370000A847B06030B1F06A401CF0620020641E2F
:10371000F3D1F2BD4FF0FF30F2BD00007072696E60
:1037200074665F733A20256E20646973616C6C6FF8
:10373000776564007072696E74663A206261642015
:10374000256E20617267756D656E74007072696EAA
:1037500074665F733A20626164202573206172672A
:10376000756D656E740000006E616E004E414E0016
:10377000696E6600494E46003000FEE770B44FF0B7
:10378000004591EA030F7EF54DAF6B40841A71EB53
:10379000030603D2001BB141121973414FF4001C00
:1037A0001CEB410F34BF7CEB430442E00C0DA4EB57
:1037B0001356352E4FDC45EAC323DB0A45EAC12107
:1037C000C912B6F120050DDD63FA05F6EB4086EA75
:1037D0000305124218BF45F00105C01851F1000160
:1037E0000CD213E062FA06F5F2405540F3415A401C
:1037F000B340F3405A408018594107D349085FEA63
:1038000030005FEA350528BF45F0010501F580115C
:10381000420875F1004250F1000041EB04514E00A6
:1038200016F5001F70BC38BF70470020090D090550
:1038300070471CEB410F10D252EA43060BD0BCEB91
:10384000410F05D80C0DAB43661E342EB6DD02E0E9
:10385000AB438018594170BC704770BC7047FEE79D
:103860000278C9B28A421AB11CBF10F8012FF9E7D9
:1038700018BF00207047FEE780B500B906A00549D3
:103880000B681BB122220021984701E000F036FCB2
:10389000222002BD6C09FF1F636F6E737472616931
:1038A0006E742068616E646C65723A206261642097
:1038B0006D6573736167650000F10103810704D0D2
:1038C00010F8011B89B18107FAD10268B2F1013108
:1038D000914311F0803F04BF50F8042FF6E710F831
:1038E000011B11B110F8011BFBE7C01A7047FEE77E
:1038F000C9B2830706D0521E22D310F8013B994269
:10390000F7D11FE0083A13D302F1040241EA012182
:1039100041EA014150F8043B121F21BF4B40A3F183
:10392000013C2CEA030C1CF0803FF3D0C9B2001F0D
:10393000083210F8013B521E28BF91EA030FF8D855
:1039400018BF0120401E7047B3BBD9B1B2F5803F0C
:103950007DD2022A1ED98C46B1FBF2F102FB11C3C3
:103960001B0443EA1043B3FBF2FC02FB1C3380B29E
:1039700040EA0343B3FBF2F002FB103240EA0C4092
:1039800000237047022A05D98446B0FBF2F002FBFF
:1039900010C270474AB105D100F0010249085FEA40
:1039A0003000704700220023704700F0ABBB0B00D3
:1039B0000200002100207047904271EB030CF6D307
:1039C000B3F5803F2FD2F0B5B3FA83F7B1FA81F4A3
:1039D000A7F10F0E3D1B5340CEF1200602FA0EF266
:1039E000F3415340B5F10F0746D80F3C2C444140FA
:1039F000C4F12006A040F1414140B1FBF3F603FBC6
:103A00001611A2FB0645001BA94102D2761E8018A2
:103A1000594180EA010221FA0EF362FA0EF2002106
:103A20005A403046F0BD30B4B1FBF3FC03FB1C112F
:103A3000A2FB0C45001BA94103D2ACF1010C80187C
:103A4000594130BC02460B46604600217047B2F136
:103A5000807F65D3F0B5B2FA82F7B1FA81F4C7F18D
:103A60000F063D1B22FA06F307F1110EF241203535
:103A70005A40B5F10F07B8D94140C4F12006A04023
:103A8000F1414140B1FBF3FC03FB1C11A2FB0C45CF
:103A9000001BA94103D2BCF1010C801859410F2F22
:103AA00012D30F3FC90341EA5041B1FBF3F603FBC8
:103AB0001611A2FB0645D4EBC030A94102D2761EF6
:103AC0008018594146EACC3C07B34140C7F1200673
:103AD000B840F1414140B1FBF3F603FB1611A2FBE4
:103AE0000645001BA94102D2761E8018594180EA82
:103AF000010221FA0EF3C7F1200462FA0EF20CFA69
:103B000007F05A402CFA04F13043F0BD80EA01027C
:103B100021FA0EF3002162FA0EF260465A40F0BD1F
:103B20008C46B1FBF2F102FB11C31B0243EA1063A6
:103B3000B3FBF2FC02FB1C331B024CEA002043EAFD
:103B40001063B3FBF2FC02FB1C331B024CEA0020A7
:103B500043EA1063B3FBF2FC02FB1C331B024CEA8A
:103B6000002043EA1063B3FBF2FC02FB1C324CEA78
:103B7000002000237047FEE762B38B0708D0521E77
:103B800011F8013B00F8013B00F024808B07F6D1CF
:103B9000830740F0208000BF103A07D330B4B1E86B
:103BA0003810103AA0E83810F9D230BC530724BFBF
:103BB000B1E80810A0E8081044BF51F8043B40F8F1
:103BC000043BD20724BF31F8022B20F8022B44BF5C
:103BD0000B7803707047121F17D35B0009D151F89F
:103BE000043B20F8023B1B0C121F20F8023BF6D2CC
:103BF0000BE051F8043B00F8013B1B0A20F8023BA4
:103C00001B0C121F00F8013BF3D238BF121D521ECD
:103C100024BF11F8013B00F8013BF8D87047FEE7DC
:103C200010B5144600F002F8226010BDC1F30A532B
:103C300043B14A0012F5001F28D2A3F2FE32A1EBD5
:103C40000251704750EA410C20D001F0004C31EA9B
:103C50000C01B1FA81F204BFB0FA80F3D2180B3A2A
:103C6000B2F120032CBF00FA03F1914041EA0C01AC
:103C70003EBFC2F1200C20FA0CF31943904052428F
:103C800040F2FD33D21A01EB035170470022704716
:103C90004FF4001C1CEB410F94BF1CEB430F09E0D9
:103CA00041EA030C50EA4C0C52EA0C0C03D2994244
:103CB00008BF9042704714BF8B4282427047000099
:103CC0004FF4001C1CEB410F94BF1CEB430F09E0A9
:103CD00041EA030C50EA4C0C52EA0C0C03D28B4222
:103CE00008BF8242704714BF99429042704700005B
:103CF000124254D440F2FF7C1CEA11530FD06345AA
:103D000031D09B1863453CBF01EB0251704701F075
:103D1000004141EA0C510020AFF30080704750EAA7
:103D2000410320D001F0004C91EA0C011CD0B1FA03
:103D300081F30B3B9A420DD9D21A994051EA0C01FA
:103D4000C3F1200C20FA0CFC61449840531C40F253
:103D5000FF7CD7E7914041EA0C01C2F1200C20FA28
:103D60000CF3194390407047B0FA80F31533202BC1
:103D7000E0D3202AEED3203A203B9A4209D9D21A26
:103D800000FA03F141EA0C010020531C40F2FF7CD1
:103D9000B8E700FA02F141EA0C01002070475242F4
:103DA00040F2FF7C1CEA11530DD06345DBD0B2EB2F
:103DB000030C3CBFA1EB025170470CF1010221EA58
:103DC000035141F4801150EA410CCCD001F0004C79
:103DD000352A27DC30B481EA0C01B2F1200309DA7C
:103DE000C2F12003044601FA03F5D0402843D14034
:103DF0009C400CE0C3F12002450020FA03F418BFF8
:103E000044F0010421FA03F091400C43002174F1C5
:103E1000004550F1000051EB0C01244230BC7FF40E
:103E20007BAF70476146002076E70000C1F30A537C
:103E300040F2FE329B1A14DDD3F120034FEAE17207
:103E400008DDC90241EA505141F00040D8408018D5
:103E50005040704703F2E13010B1D24382F000408D
:103E60007047002070470000F0B540F2FF7581EA0E
:103E7000030C0CF0004C15EA11541DBF15EA135742
:103E8000AC42AF42E5E0BC41C1F31301C3F31303FD
:103E9000801A994143F4801304D2641E40004941C2
:103EA00080185941C90241EA5051B1FBF3F603FBB6
:103EB0001611A2FB0675D7EBC020A94102D2761ECF
:103EC00080185941C90241EA5051B1FBF3FE03FB8E
:103ED0001E11A2FB0E75D7EBC020A94103D2AEF193
:103EE000010E80185941890241EA9051760546EA4F
:103EF0008E2EB1FBF3F603FB1611A2FB0675D7EB72
:103F00008020A94102D2761E80185941C90241EA97
:103F100050514EEA060EB1FBF3F603FB1611A2FB5D
:103F20000675D7EBC020A94102D2761E80185941F0
:103F3000C90241EA5051B1FBF3F703FB1711A2FB91
:103F40000735D3EBC020A94167F100070CBF004241
:103F500047F0010766F3D5274FEA1E31B80814F57C
:103F6000806412DDBD0775F1004250EB0E5051EB3D
:103F7000045111F5801F5CBF41EA0C01F0BD4CF00B
:103F80007F6141F0E0410020F0BDBD076D0840EACF
:103F90000E5041F48011D4F10104B4F120060ADA84
:103FA000C4F120060200E04001FA06F3E1401843A4
:103FB000B24015430EE0342C13DCC6F1200445EA70
:103FC00040056D0820FA06F2154321FA06F0A140DB
:103FD0000D43002175F1004250F1000051EB0C013E
:103FE000F0BD00205FEA0C01F0BDCFB992185B4133
:103FF000B3FA83F704BFB2FA82F6BF190B3FB7F1E9
:1040000020062FBF02FA06F3BB40C7F1200622FAB2
:1040100006F638BF3343BA401CB1E419641E33E7D7
:104020007F4231F00041B1FA81F404BFB0FA80F66A
:10403000A4190B3CB4F120062FBF00FA06F1A140F1
:10404000C4F1200620FA06F638BF3143A0403C1BDD
:104050001AE7AC421ABF05EA1357AF4212E050EA22
:1040600041061CBF52EA4306BFE750EA410730460B
:1040700061461CBF41EA0551F0BD52EA430C08BF3E
:10408000C143F0BD00204FF4001616EB410F98BF5E
:1040900016EB430F08BF16EB410F24BFC14305E0E9
:1040A00016EB430F0CBF61464CEA0551F0BD000012
:1040B000400D491840EA81200CD2490DA1F58061DC
:1040C000491C40F0004005DBD1F11F0154BFC8403E
:1040D000C017704700207047014648B1B0FA80F120
:1040E0008840C91CC1F58461090501EBD021400558
:1040F00070470000004870470402FF1F012000F0D5
:1041000003B800007047000080B5AFF30080024A9A
:1041100011001820ABBEFBE726000200F8B4DFF860
:10412000380B00F1C403DFED131ADC68654201EEC1
:10413000105AB8EEC11AB4EE401AF1EE10FA76D564
:1041400002EE904AF8EEE22AB4EE620AF1EE10FABC
:1041500072D59D686E4203EE106AB8EEC33AB4EEB3
:10416000403AF1EE10FA07DB6FF0010133EE400A3E
:1041700053E000BF0000C8425E68774203EE107A49
:10418000B8EEC33AB4EE403AF1EE10FA07DBAD1BDD
:104190004FF0FF3133EE400A02EE105A40E01F6844
:1041A00003EE107AB8EEC33AB4EE403AF1EE10FAEC
:1041B0000BDB7C4202EE104AB8EEC22A32EE400A15
:1041C000F61B002102EE106A2AE003EE106AB8EE38
:1041D000C33AB4EE403AF1EE10FA06DBF61B0121C9
:1041E00033EE400A02EE106A1AE003EE105AB8EEFF
:1041F000C33AB4EE403AF1EE10FA06DBAD1B0221F1
:1042000033EE400A02EE105A0AE0F4EE402AF1EED4
:1042100010FA14DB032132EEC00A641B02EE104ACE
:10422000B8EEC22A80EE020A20EE212A07E06FF0E3
:104230000101B0EE612A02E003219FEDBB2ADC6997
:10424000654202EE905AF8EEE22AF4EE602AF1EEB0
:1042500010FA31EEC20A73D502EE904AF8EEE22A65
:10426000F4EE620AF1EE10FA6FD59D696E4203EE2C
:10427000106AB8EEC33AB4EE603AF1EE10FA04DB1D
:104280006FF0010273EE600A50E05E69774203EE60
:10429000107AB8EEC33AB4EE603AF1EE10FA07DBEA
:1042A000AD1B4FF0FF3273EE600A01EE105A40E092
:1042B0001B6903EE103AB8EEC33AB4EE603AF1EE81
:1042C00010FA0BDB5C4201EE104AB8EEC11A71EE37
:1042D000600AF61A002201EE106A2AE003EE106A64
:1042E000B8EEC33AB4EE603AF1EE10FA06DBF61A15
:1042F000012273EE600A01EE106A1AE003EE105A12
:10430000B8EEC33AB4EE603AF1EE10FA06DBAD1B3C
:10431000022273EE600A01EE105A0AE0F4EE602AFF
:10432000F1EE10FA14DB032272EEE00A641B01EED8
:10433000104AB8EEC11AC0EE810A20EEA11A07E0B9
:104340006FF00102B0EE611A02E003229FED761ACF
:10435000DFF8884A8B1C23602361B4EE421AD31C19
:104360006361E36171EEC10A951CCE1CF1EE10FA97
:10437000ACBFF0EE423AF0EE413AB4EE401AC1EB77
:10438000C103F1EE10FA6560A660E560A66100EB7E
:104390008301A8BFB0EE401AF4EE420A01EB82049A
:1043A000F1EE10FAB8BFB0EE602AF4EE400A216CCC
:1043B000E26D636C246EF1EE10FAB8BFB0EE600AE5
:1043C000914208D1B4EE631AF1EE10FA4CBF9FEDA2
:1043D000561ADFED553A994208D1B4EE632AF1EE50
:1043E00010FA4CBF9FED502ADFED4F3AA14208D1A1
:1043F000B4EE630AF1EE10FA4CBF9FED4B0ADFED0D
:104400004A3A9A4208D1B4EE412AF1EE10FA4CBF72
:104410009FED452A9FED441AA24208D1B4EE410A0D
:10442000F1EE10FA4CBF9FED400A9FED3F1AA342F8
:1044300008D1B4EE420AF1EE10FA4CBF9FED3A0AF1
:104440009FED392AE430002904D400EB8101D1ED3D
:10445000000A05E0494250F821506D4200EE905AA2
:10446000002A04D400EB8201D1ED001A05E052428B
:1044700050F82220524201EE902A002B04D400EB87
:104480008301D1ED002A05E05B4250F8232052421F
:1044900002EE902A002C04D400EB840090ED003A48
:1044A00005E0644250F82410494203EE101AF8EE79
:1044B000E00A60EEA30AF8EEE11A41EE810AF8EE96
:1044C000E21AF1BC41EE820AF8EEC31A33EE811A09
:1044D00041EE800A31EE021A31EE000A80EE800AC7
:1044E00070472DED010AF6EE000A0099DFF8680921
:1044F00020EE200AA0EB610000EE900A20EE201AC8
:10450000F7EE081A41EE601A61EEA00A20EE200ACA
:10451000B7EE081A00EE601A21EE200ADDED000A5F
:1045200020EE200A01B07047000000001CB5DFF843
:10453000B04804F1080000F0B3F8A168226ADFF87F
:10454000B0088A42B8BF216203DB02689142B8BF5B
:104550000160E168626A8A42B8BF616203DB426857
:104560009142B8BF41602169A26A8A42B8BFA16284
:1045700003DB82689142B8BF81606169E26A8A4266
:10458000B8BFE16203DBC2689142B8BFC160A169F4
:10459000226B8A4201DA216313BD02699142B8BFDE
:1045A000016113BDDFF83818087881B098B991ED32
:1045B0001F0AD1ED0E0AB8EEC00AB4EE600AF1EEA1
:1045C00010FABEBFD1ED0F0AB4EE600AF1EE10FA98
:1045D000A4BF0120087001B0704738B4DFF800288C
:1045E0005378107820B3D17841B15479012C1DD083
:1045F000117901291CD1946FD46519E0917879B9AA
:1046000092ED0E0AD2ED0F0AB4EE600AF1EE10FA46
:1046100002DB0123937005E001210223917005E084
:10462000012B01D1916F02E0022B01D1516FD165B5
:10463000DFF8B0170C78012C0DD1DFF8C8572D78B2
:104640000120022D08BF022301D0012D01D053709B
:1046500004E0507002E0537003001ED092ED200A77
:10466000D2ED0E0AB8EEC00AF4EE400AF1EE10FAEE
:10467000A2BFD2ED0F0AF4EE400AF1EE10FAA2BF8B
:10468000D2ED100AF4EE400AF1EE10FA05DB00203C
:104690009070012C04BF02230B70107031BC704766
:1046A00038B50446DFF8B45701220821284600F047
:1046B000F4FB206001220C21284600F0EEFB606034
:1046C00001220921284600F0E8FBA06001220A210E
:1046D000284600F0E2FBE06001220B21284600F0B2
:1046E000DCFB206131BD00002DE9F84F2DED0A8B78
:1046F00082B0DFF8F41605208A690A600A6B8A61C5
:104700008A6C0A63091D401EF6D1DFF8DC8608F1C9
:104710004800FFF7C5FFDFF8D41642460520002306
:104720000B6095691368EB18156BEB18956CEB181B
:104730005D1003EB9573121D9B10401E41F8043B66
:10474000EDD1DFF89C56AA6841F2010141F22A300E
:104750008A42A8BFA86003DA192ABCBF1922AA603E
:10476000EA688A42A8BFE86003DA192ABCBF1922A6
:10477000EA602A698A42A8BF286103DA192ABCBF05
:1047800019222A616A698A42A8BF686103DA192A74
:10479000BCBF19226A61AA698A4202DA192A01DABF
:1047A0001920A86108F1600B05F10804DFF84096B4
:1047B00005F1200705269FEDB98BD9F800A02068E8
:1047C000A0EB0A00FDF73EFECDE900013868A0EB42
:1047D0000A00FDF737FE02460B46DDE90001FFF750
:1047E00043FB53EC182BFDF743FEFDF7CFFF00EE24
:1047F000100ABDEEC00A10EE100AB0F57A7FC8BFED
:104800004FF47A7002DC0028D8BF01203F1D241D20
:10481000761E4BF8040B09F10409CED198ED180A65
:10482000D5ED138AB8EEC0BA85ED0EBA98ED190A27
:10483000B8EEC09A85ED109A98ED1A0AF8EEC0BA53
:10484000C5ED0FBA98ED1B0AB8EEC0AA85ED11AA06
:1048500098ED1C0AF8EEC0AAC5ED12AAC8ED208A90
:10486000B0EE6B0A98ED1E8A88ED218AFFF739FEBB
:10487000F0EE409AB0EE4B0AFFF733FE79EEC09AA5
:10488000B0EE4B0AFFF72DFEB0EE40BAB0EE6B0A69
:10489000FFF727FE3BEE00BAB0EE490AFFF721FE14
:1048A000F0EE40BAB0EE6A0AFFF71BFEB0EE40CA67
:1048B000B0EE4A0AFFF715FE3CEE40CAB0EE6A0AB7
:1048C000FFF70FFEF0EE40AAB0EE4A0AFFF709FE2E
:1048D0003AEE80AAB0EE490AFFF703FEB0EE409A26
:1048E0003BEE2B0AF0EE680A89EE800A00F0E0F950
:1048F000F0EE409A3AEE090AC5ED139AF0EE480A36
:104900008CEE000A00F0D4F9B0EE409A39EE488AF5
:1049100088ED1E9A88ED1F8A19EE100AFDF716FD24
:1049200021F0004141EC1A0B19EE900AFDF70EFD43
:1049300021F00043024651EC1A0BFFF7C1F979EE62
:10494000E88A9CBF85ED139AF0EE488A02B0C5ED67
:10495000148ABDEC0A8BBDE8F18FDFF8841491ED69
:10496000190AD1ED110AB8EEC00AB4EE600A81B09E
:10497000F1EE10FA42BFD1ED120AB4EE600AF1EE88
:1049800010FA02D50120887101E0887948B1DFF87A
:10499000A4040B6F02689A4203DB0022026001202C
:1049A000C87001B070470000F8B5DFF834642DED31
:1049B000028BF17829B9DFF83C24107808B1FFF7B1
:1049C000CCFF96ED150AF06D96ED148A96ED131A4C
:1049D0003066F8EEC08A9FED9E0A68EE000A9FEDF1
:1049E0009D0A21EE000AFFF799FBDFF80C0496ED13
:1049F000161AB0F9001000EE901A08EE880AF8EEC8
:104A0000E00A00EE810ABDEEC00A86ED170AFFF744
:104A1000C9FDFFF7E2FDF778012F18D1F06EFDF721
:104A200011FD0D46DFF8D41304460868FDF78EFC2F
:104A300021F0004122462B46FFF72AF907D23079B0
:104A400008B1B16F02E0707908B1716FF165DFF8FC
:104A5000B013087860B1DFF8AC231078012808BFE4
:104A6000DFF8A40303D0022802D14FF46170F0658F
:104A7000F16D706F884202DBB06F884200DBF06539
:104A8000BDEC028BF26DDFF8D803BDE8F84002F50B
:104A9000D052121D92B2012100F0B8BA00000000FD
:104AA00000408F402DE9F04D2DED048BD74FD84CB1
:104AB000D84D82B03868206528686065D64800F017
:104AC00005FB3860D54800F001FB4042286004F146
:104AD00028020020211D51F8201044F8201004F174
:104AE0002C0151F8201042F82010401C211D51F8D3
:104AF000201044F8201004F12C0151F8201042F845
:104B00002010401C211D51F8201044F8201004F101
:104B10002C0151F8201042F82010401C0928D9DB44
:104B20003868606200262868E064B04621460520A7
:104B300051F8043B9E1952F8043B984451F8043B49
:104B40009E1952F8043B401E9844F1D1206DFDF7A8
:104B500079FC9FED559B53EC192BFDF789FC8246A0
:104B60008B463046FDF76EFC0022AF4BFFF77CF919
:104B7000FFF75CF9FDF766FC9FEDA98B53EC182B52
:104B8000FDF776FC52465B46FDF744FDFFF74EF914
:104B900006463E60606DFDF755FC53EC192BFDF7A2
:104BA00067FC07460C464046FDF74CFC00229E4B36
:104BB000FFF75AF9FFF73AF9FDF744FC53EC182BCD
:104BC000FDF756FC3A462346FDF724FDFFF72EF984
:104BD00028608019FDF736FC0022944BFDF748FC55
:104BE000FDF7D4FD00EE100A91487D49914A80ED11
:104BF000000A8879D2ED000A48B1B2EE041AF8EE44
:104C0000E00A80EE011A70EE810AFDEEE00A8A49A0
:104C10000868A8B9734B894D1C78894B2878914D49
:104C20001978044328780C43044309D1B2EE041ADE
:104C3000F8EEE00A80EE010A30EE800AFDEEC00ACE
:104C400002B0C2ED000ABDEC048BBDE8F08D00009F
:104C50000000C842000034420000FF1F80B56048D9
:104C6000C17801291CBF8079012802D05D4A1178E2
:104C700021B9714B186808B9012100E000219A2080
:104C8000FDF7BCFB6D4A6C4B10781968084302BFF6
:104C9000544A10780028BDE804400CBF01210021CF
:104CA0009A20FDF7ABBB0000666666666666E63F67
:104CB00070B52DED0A8BB0EE408A624E624896EDDB
:104CC00001BAF061B7EE000AD6ED02AAD6ED03BA3A
:104CD000306830EE4B0A30EE6AAAB1EE6BCAF0EEE5
:104CE000608A86ED04AA86ED05CA86ED06CAFDF740
:104CF0002DFB04460D461AEE100AFDF727FB9FED2B
:104D0000539B53EC192BFDF7B3FB22462B46FDF7C3
:104D100081FCFDF73BFD0AEE100A86ED00AA1CEEB1
:104D2000100AFDF713FB53EC192BFDF7A1FB41EC27
:104D30001C0B1BEE100AFDF709FB53EC1C2BFDF7B7
:104D400069FCFDF723FD09EE100A86ED019A1AEEC3
:104D5000900AFDF7FBFA53EC1C2BFDF75BFCFDF70B
:104D600015FD09EE900AC6ED029A1BEE900AFDF7BA
:104D7000EDFA384A3C4BFDF74DFCFDF707FD00EE20
:104D8000100A86ED030AB0EE4A1AF2EE041A71EE2A
:104D9000211A78EE680A81EE212AC9EEA11AF0EEF6
:104DA000492A01EEE20A86ED030A02EE41AA96EDD7
:104DB000080A86ED00AA01EEA00A02EE629A41EE10
:104DC000C19A86ED080A02EE208A86ED019AC6EDA8
:104DD000029AB0EE480ABDEC0A8B70BDF408FF1FC2
:104DE0000001FF1F4C02FF1F1408FF1F0801FF1FD7
:104DF0000803FF1F3103FF1F9602FF1F6002FF1F02
:104E00000C07FF1F3203FF1F7CFCFFFFF001FF1F99
:104E10009C08FF1FF401FF1F0090034000A0034007
:104E2000333333333333D33F000024400000E03FBB
:104E30005809FF1F6402FF1FF801FF1F9502FF1FA3
:104E40004803FF1FE402FF1F17B7D138BA490C020D
:104E50002B87763F295C8FC2DF59375F00B00B404C
:104E6000008003403303FF1F7674A23E194A1A499B
:104E7000904207D1486A40F0006048620A6822F018
:104E8000900206E0886940F0006088610A6822F4B8
:104E900010420A600868086070470E4B9200984202
:104EA00002F00C0218BF0D4B81B042F0500201F02D
:104EB0001F019A60042041F04001D8601960186811
:104EC0000106FCD51869196821F08001196080B2CB
:104ED00001B0704700B003401880044000B00B40A0
:104EE0002DE9F04106460F469046FFF7D6FF0546EE
:104EF000424639463046FFF7D0FF0446424639461F
:104F00003046FFF7CAFFAC42014602D2284625468A
:104F100004468C4203D30C46AC4238BF2C46204694
:104F2000BDE8F0812DE9F84304460D4690469946C8
:104F30000026002706E0424629462046FFF7D0FF1C
:104F400036187F1CF8B24845F5D3B6FBF9F080B2AD
:104F5000BDE8F2832DE9F04104460D4690461E4619
:104F600000F0BAF8074601222946204600F0CAF8A8
:104F7000DFF81813DFF8180309784143080CB0FB79
:104F8000F8F080B2002200E0521C20FA02F3012B5C
:104F9000FADAD0B2082836DAD140B1FBF8F3DFF8FC
:104FA000F4029BB240F827300020032F18D8DFE826
:104FB00007F0020A0A11581C4643B74F0021E6FBCE
:104FC0000771080C0CE0591C4E43B448A6FB00C7FF
:104FD000780A05E0581C4643B148A6FB00C7780B89
:104FE00002F0070242F00802226004EBC501282506
:104FF000CA6822F00402CA60CD60A3600022E264A5
:1050000080B208616260BDE8F081000030B4A54B59
:10501000984202D10023002413E0A34B984202D10E
:10502000012304240DE0A14B984202D1022308245D
:1050300007E09F4B984207BF03230C24FF234FF444
:105040007F74944D2C590025032B18D8DFE803F00A
:10505000020A0A11641C62438F4C0023E2FB0443E2
:105060001D0C0CE0641C62438C4CA2FB04435D0AE3
:1050700005E0641C62438A4CA2FB04435D0B00EB19
:10508000C100ADB2056130BC704710B504460022C6
:10509000002100F037F8606D40F0040060650021E9
:1050A000D4F8800040F00800C4F88000E1644FF6B6
:1050B000FF70A060D4F8800040F00100C4F88000C8
:1050C000606D40F001006065616010BD0146002226
:1050D00048684A6000B270477249884201D1002096
:1050E00070477149884201D1012070476F49884259
:1050F00001D1022070476E49884201D103207047D8
:10510000FF207047674B984208BF00200ED0664BC7
:10511000984208BF012009D0644B984208BF022082
:1051200004D0634B98420CBF0320FF20002A00F0FC
:105130009280032800F2A980DFE800F0023245588F
:105140005C48C26842F080720729C26000F29D800C
:10515000DFE801F004080C1014191E224FF48060DF
:10516000554953E04FF48061534A54E04FF4806056
:10517000514955E04FF480624F4856E04F4A4FF492
:105180004071116070474E4A4FF480601060704764
:105190004FF480614A4A3EE04FF4806048493FE066
:1051A0004448C26842F00072C26011B1012905D0C2
:1051B000704742494FF44070486070473F484FF491
:1051C0004072826070473B48C26842F08062C260B1
:1051D00011B1012905D0704738494FF44070C860BB
:1051E000704736484FF44072026170473148026898
:1051F00042F000720729026047D8DFE801F0040995
:105200000E13181D22274FF4C0602E490860704706
:105210004FF4C0612B4A516070474FF4C060294978
:10522000886070474FF4C0622648C2607047254AC4
:105230004FF4C0611161704722494FF4C06048616A
:1052400070471D484FF44072426270471A4A4FF44B
:10525000407191627047012802D002280BD070473C
:105260001448C16841F00071C1604FF4E060134917
:105270004861886170470F48C16841F08061C16032
:105280004FF4C06110480160416070477309FF1F0F
:1052900040420F004009FF1F47ACC5A7986E12831C
:1052A0005917B7D1008003400090034000A003408D
:1052B00000900B403080044004B004401C90044037
:1052C00014C0044014D0044048A00440DF49E04A20
:1052D000E04B0120087001211170DF4A1070DF4897
:1052E000DF4A417040F698011160012202700021EE
:1052F000DC48DD4A0160117040F23B10DB4A11705E
:10530000DB4A1170DB4A117040F2A231DA4A1160B7
:105310000021DA4A10600A20D94A1160D94ADA49D4
:1053200010604FF461700860D84AD94911600022BA
:105330001A709621D74BD84A19604FF080431360FA
:105340000021D64B19600122D54B1A704621D54B4E
:1053500019604B22D44B1A600121D44B19600022F2
:10536000D34B1A700021D34B19704FF49672D24B65
:105370001A60D24BD24A196010604620D149D24AF5
:1053800008604FF4DC711160D048D14AD149026005
:1053900000204FF07E520A60CF4A10707047000024
:1053A000F8B51424CD4DCE4E452000F09FFA0746A7
:1053B000462000F09BFA40EA072000B200EE100AF7
:1053C000B8EEC00ADFEDA00A80EE200AD6ED000A92
:1053D00030EE200A86ED000A472000F087FA0746E3
:1053E000482000F083FA40EA072000B200EE100ADD
:1053F000B8EEC00ADFED940A80EE200AD5ED000A6F
:1054000030EE200A641E85ED000ACDD1D6ED000AEB
:10541000B3EE041A80EE811A86ED001AB3EE041A78
:1054200080EE010A85ED000AF1BD80B501219A20C8
:10543000FCF7E4FF6420FDF7DDF900219A20FCF77A
:10544000DDFF6420FDF7D6F901219A20FCF7D6FF95
:105450006420FDF7CFF900219A20FCF7CFFFBDE8CB
:1054600002406420FDF7C6B980B5012201219A20CF
:10547000FCF790FF012201211120FCF78BFF012294
:1054800001214020FCF786FF012201216F20FCF75B
:1054900081FF012201210520FCF77CFF012201216F
:1054A0000720FCF777FF002201215220FCF772FF52
:1054B000002201215320FCF76DFF0022012108206A
:1054C000FCF768FF002201210920FCF763FF00229E
:1054D00001210A20FCF75EFF002201210B20FCF7CE
:1054E00059FF012203214520FCF754FF012203212B
:1054F0004420FCF74FFF012203214620FCF74AFF1E
:10550000012203214720FCF745FF0122032140200F
:10551000FCF740FF012203214120FCF73BFF012261
:1055200003214320FCF736FF002202219A20FCF7DA
:1055300031FF002200216120FCF72CFF0022002116
:105540006320FCF727FF002200216520FCF722FFE3
:10555000002200216720FCF71DFF002201216020AE
:10556000FCF718FF002201216220FCF713FF002244
:1055700001216420FCF70EFFBDE808400022012154
:105580006620FCF707BF000038B572B60A2000F0AD
:10559000C9F9544A54481368544C4FF6FF010B4064
:1055A000034313600022524802701021417041F6FB
:1055B0000423322201214F48FFF7CCFC44F2682536
:1055C00000232A4601212046FFF7C4FC00232A4677
:1055D00002212046FFF7BEFC00232A460321204675
:1055E000FFF7B8FC00232A4604212046FFF7B2FC4F
:1055F0004148424CFFF749FD4148FFF746FDFFF7A0
:1056000033FF00F011FA00F081F83E48FFF72EFC5E
:105610004FF4E1313C48FDF709F90221002000F088
:1056200041FA4FF4803020600A21012000F03AFA5C
:105630004FF400302060FCF741FBFCF705FCFCF761
:1056400001FD62B631BD0000333383413303FF1FD8
:105650009502FF1F4C02FF1F4803FF1F3103FF1F6E
:105660007001FF1F6002FF1F0301FF1F0601FF1FE4
:105670000401FF1F0501FF1F6401FF1FA402FF1F9C
:105680005409FF1F6C01FF1F7401FF1F7801FF1FEA
:105690007CFCFFFF5401FF1F5801FF1F5C01FF1F2F
:1056A0000001FF1F7C01FF1F8001FF1FF801FF1F8A
:1056B0000C07FF1F7409FF1F0002FF1F6409FF1F73
:1056C000AC02FF1FA802FF1F7002FF1F4003FF1F55
:1056D000000048424403FF1F8701FF1F5C09FF1FB2
:1056E0006009FF1F0CED00E00003FA0500900B407D
:1056F00030E400E0008003400090034004E100E05B
:1057000000A0034000B00B4000A00E401CB50A20D2
:10571000009001237E4C00220121204600F0EAF98E
:105720006420FDF767F8752000F0E0F8122804D037
:1057300000215320FCF762FEFEE701215320FCF715
:105740005DFE80216B2000F0CAF86420FDF752F85E
:1057500000216B2000F0C3F86420FDF74BF81B20FC
:105760008DF80400182102208DF80510009001AB7F
:1057700001AA0121204600F038FB80211C2000F006
:10578000AEF84FF47A7000F03AF802211A2000F0D7
:10579000A6F80021382000F0A2F800216A2000F0CD
:1057A0009EF801216B2000F09AF800216C2000F097
:1057B00096F813BD02208DF80410009001AB01AAE9
:1057C0000121534800F011FB03B000BDE0B5BC2837
:1057D000A8BF01200FDA6228A8BF02200BDA2A280E
:1057E000A8BF032007DA1428A8BF042003DA0A2878
:1057F000ACBF052006208DF805001A21DAE71CB59C
:105800000446B0F57A7FC8BF4FF47A7402DC0428EE
:10581000B8BF042419208DF804004FF47A71204693
:1058200091FBF0F0411E02208DF80510009001ABB5
:1058300001AA0121364800F0D8FA6008FFF7C6FF38
:1058400013BD000070B52DED028B86B0BB208DF826
:1058500004000F260C9C0D9D2D48009601AB01AA5B
:10586000012100F0C2FA9DF80F009DF81020294B8D
:10587000D3ED000A42EA002212B200EE102AB8EE7E
:10588000C00A70EE600A10EE900AFCF75FFD9FED13
:10589000228B53EC182BFCF7EBFDFEF7C7FA2080A8
:1058A0009DF812109DF8110041EA002109B21C4830
:1058B000D0ED000A00EE101AB8EEC00A70EE600AD1
:1058C00010EE900AFCF742FD53EC182BFCF7D0FDCC
:1058D000FEF7ACFA288006B0BDEC028B70BDE0B5D7
:1058E0008DF804008DF80510022066E7E0B540F061
:1058F00080008DF8040001AB0220009001AA012174
:10590000034800F072FA9DF8050003B000BD0000E6
:1059100000D002406009FF1F08AC1C5A643BAF3F37
:105920005C09FF1FF0B43B4B1C6844F478541C60C6
:1059300004003BD0401E0F2838D8DFE800F0080BE9
:105940000E1114171A1D2023262C292F323504215D
:1059500000222BE00421022228E00421042225E079
:105960000421082222E004210A221FE004210C2243
:105970001CE004210E2219E00421102216E004216B
:10598000122213E00421142210E0042118220DE059
:1059900004211C220AE004211D2207E004211E220A
:1059A00004E004211F2201E0032116221A481B4FA4
:1059B0008024047001F007040471194C25682668DE
:1059C00046F47F062660DF6002F01F03256043F087
:1059D0004003437183799C06FCD583795C06FCD532
:1059E000002404708379C3F38103032BFAD1D2B26C
:1059F0001032322010FB02F202EBD272C9B2094817
:105A00005210491C92FBF1F1017001784908417074
:105A1000F0BC704738800440004006400000270179
:105A200000F001407209FF1F80B5012201216D20A5
:105A3000FCF7B0FCBDE80840012201216E20FCF714
:105A4000A9BC70B5054601216D20FCF7D7FC0021EB
:105A50006E20FCF7D3FC01216E20FCF7CFFC002167
:105A60006D20FCF7CBFC01216D20FCF7C7FC002169
:105A70006E20FCF7C3FC8024094E00216D20FCF74A
:105A8000BDFC052301220D213046FFF74BFA25F816
:105A9000020B01216D20FCF7B1FC641EEDD170BD3D
:105AA00000B00B4010B40F4A136843F400031360B6
:105AB0000D4A1468A408A40014600C4A0C4C02EBB4
:105AC0000013227851434FF47A7041431960D8682B
:105AD00040F00100D860986840F00300986010BC66
:105AE000704700003C800440007003400071034098
:105AF0007309FF1F2DE9F84F94B0044688461746F6
:105B00001D4604A80FF294314022FEF745F80FF22B
:105B1000CC32DFF864C392E8030C6E46002386E8BB
:105B2000030C64454FF0FF31D44A5CD1DFF850C319
:105B3000DCF80CE04EF4805ECCF80CE0D2F800C04B
:105B4000DCF83CE04EF4007ECCF83CE0DCF840E0D1
:105B50004EF4007ECCF840E0DCF844E04EF4007EE9
:105B6000CCF844E05FEAC87E05D5DCF838E04EF4B6
:105B7000007ECCF838E05FEA887C07D5D2F808C010
:105B8000DCF80CE04EF4007ECCF80CE05FEA487CD8
:105B900007D5D2F808C0DCF808E04EF4007ECCF857
:105BA00008E05FEA087C07D5D2F808C0DCF804E01A
:105BB0004EF4007ECCF804E05FEAC86C07D5D2F85A
:105BC00008C0DCF800E04EF4007ECCF800E05FEAAC
:105BD000886C40F181805268D2F85CC04CF4007C43
:105BE000C2F85CC078E0DFF89CE2744541D1DFF890
:105BF00090C2DCF80CE04EF4005ECCF80CE0D2F879
:105C000010C0DCF808E04EF4007ECCF808E05268E2
:105C1000D2F840E04EF4007EC2F840E0DCF80C2000
:105C200042F40072CCF80C205FEAC87205D5DCF8AB
:105C3000102042F40072CCF810205FEA887205D57B
:105C4000DCF8002042F40072CCF800205FEA4872D1
:105C500005D5DCF8142042F40072CCF814205FEA79
:105C6000087239D5DCF8182042F40072CCF81820FC
:105C700032E0DFF814C264452ED1DFF804C2DCF84C
:105C800000E04EF4805ECCF800E0D2F804C0DCF80E
:105C900054E04EF4007ECCF854E0DCF858E04EF4CA
:105CA000007ECCF858E0DCF85CE04EF4007ECCF8E6
:105CB0005CE05FEAC87E05D5DCF850E04EF4007E7B
